{
  "_format": "hh-sol-artifact-1",
  "contractName": "VBridgeRouter",
  "sourceName": "contracts/VBridgeRouter.sol",
  "abi": [
    {
      "anonymous": false,
      "inputs": [
        {
          "indexed": false,
          "internalType": "uint8",
          "name": "version",
          "type": "uint8"
        }
      ],
      "name": "Initialized",
      "type": "event"
    },
    {
      "anonymous": false,
      "inputs": [
        {
          "indexed": false,
          "internalType": "address",
          "name": "token",
          "type": "address"
        },
        {
          "indexed": false,
          "internalType": "address",
          "name": "from",
          "type": "address"
        },
        {
          "indexed": false,
          "internalType": "address",
          "name": "to",
          "type": "address"
        },
        {
          "indexed": false,
          "internalType": "uint256",
          "name": "amount",
          "type": "uint256"
        },
        {
          "indexed": false,
          "internalType": "uint256",
          "name": "fromChainID",
          "type": "uint256"
        },
        {
          "indexed": false,
          "internalType": "uint256",
          "name": "toChainID",
          "type": "uint256"
        },
        {
          "indexed": false,
          "internalType": "uint256",
          "name": "form",
          "type": "uint256"
        }
      ],
      "name": "LogRouterSwapInEVM",
      "type": "event"
    },
    {
      "anonymous": false,
      "inputs": [
        {
          "indexed": true,
          "internalType": "address",
          "name": "previousOwner",
          "type": "address"
        },
        {
          "indexed": true,
          "internalType": "address",
          "name": "newOwner",
          "type": "address"
        }
      ],
      "name": "OwnershipTransferred",
      "type": "event"
    },
    {
      "inputs": [
        {
          "internalType": "address",
          "name": "token",
          "type": "address"
        },
        {
          "internalType": "address",
          "name": "_minter",
          "type": "address"
        }
      ],
      "name": "addMinter",
      "outputs": [
        {
          "internalType": "bool",
          "name": "",
          "type": "bool"
        }
      ],
      "stateMutability": "nonpayable",
      "type": "function"
    },
    {
      "inputs": [
        {
          "internalType": "address",
          "name": "token",
          "type": "address"
        },
        {
          "internalType": "address",
          "name": "from",
          "type": "address"
        },
        {
          "internalType": "uint256",
          "name": "amount",
          "type": "uint256"
        }
      ],
      "name": "burnOBToken",
      "outputs": [
        {
          "internalType": "bool",
          "name": "",
          "type": "bool"
        }
      ],
      "stateMutability": "nonpayable",
      "type": "function"
    },
    {
      "inputs": [],
      "name": "chainID",
      "outputs": [
        {
          "internalType": "uint256",
          "name": "",
          "type": "uint256"
        }
      ],
      "stateMutability": "view",
      "type": "function"
    },
    {
      "inputs": [
        {
          "internalType": "address",
          "name": "token",
          "type": "address"
        },
        {
          "internalType": "address",
          "name": "_orgtoken",
          "type": "address"
        }
      ],
      "name": "changeOrgToken",
      "outputs": [
        {
          "internalType": "bool",
          "name": "",
          "type": "bool"
        }
      ],
      "stateMutability": "nonpayable",
      "type": "function"
    },
    {
      "inputs": [
        {
          "internalType": "address[]",
          "name": "tokenList",
          "type": "address[]"
        },
        {
          "internalType": "address",
          "name": "newRouter",
          "type": "address"
        }
      ],
      "name": "changeRouter",
      "outputs": [
        {
          "internalType": "bool",
          "name": "",
          "type": "bool"
        }
      ],
      "stateMutability": "nonpayable",
      "type": "function"
    },
    {
      "inputs": [
        {
          "internalType": "address",
          "name": "_wNativeToken",
          "type": "address"
        }
      ],
      "name": "initialize",
      "outputs": [],
      "stateMutability": "nonpayable",
      "type": "function"
    },
    {
      "inputs": [
        {
          "internalType": "address",
          "name": "token",
          "type": "address"
        },
        {
          "internalType": "address",
          "name": "to",
          "type": "address"
        },
        {
          "internalType": "uint256",
          "name": "amount",
          "type": "uint256"
        }
      ],
      "name": "mintOBToken",
      "outputs": [
        {
          "internalType": "bool",
          "name": "",
          "type": "bool"
        }
      ],
      "stateMutability": "nonpayable",
      "type": "function"
    },
    {
      "inputs": [],
      "name": "owner",
      "outputs": [
        {
          "internalType": "address",
          "name": "",
          "type": "address"
        }
      ],
      "stateMutability": "view",
      "type": "function"
    },
    {
      "inputs": [
        {
          "internalType": "address",
          "name": "token",
          "type": "address"
        },
        {
          "internalType": "address",
          "name": "_minter",
          "type": "address"
        }
      ],
      "name": "removeMinter",
      "outputs": [
        {
          "internalType": "bool",
          "name": "",
          "type": "bool"
        }
      ],
      "stateMutability": "nonpayable",
      "type": "function"
    },
    {
      "inputs": [],
      "name": "renounceOwnership",
      "outputs": [],
      "stateMutability": "nonpayable",
      "type": "function"
    },
    {
      "inputs": [
        {
          "internalType": "address",
          "name": "token",
          "type": "address"
        },
        {
          "internalType": "address",
          "name": "to",
          "type": "address"
        },
        {
          "internalType": "uint256",
          "name": "amount",
          "type": "uint256"
        },
        {
          "internalType": "uint256",
          "name": "toChainID",
          "type": "uint256"
        }
      ],
      "name": "swapInERC20Token",
      "outputs": [
        {
          "internalType": "bool",
          "name": "",
          "type": "bool"
        }
      ],
      "stateMutability": "nonpayable",
      "type": "function"
    },
    {
      "inputs": [
        {
          "internalType": "address",
          "name": "token",
          "type": "address"
        },
        {
          "internalType": "address",
          "name": "to",
          "type": "address"
        },
        {
          "internalType": "uint256",
          "name": "toChainID",
          "type": "uint256"
        }
      ],
      "name": "swapInNativeToken",
      "outputs": [
        {
          "internalType": "bool",
          "name": "",
          "type": "bool"
        }
      ],
      "stateMutability": "payable",
      "type": "function"
    },
    {
      "inputs": [
        {
          "internalType": "address",
          "name": "token",
          "type": "address"
        },
        {
          "internalType": "address",
          "name": "to",
          "type": "address"
        },
        {
          "internalType": "uint256",
          "name": "amount",
          "type": "uint256"
        },
        {
          "internalType": "uint256",
          "name": "toChainID",
          "type": "uint256"
        }
      ],
      "name": "swapInOBToken",
      "outputs": [
        {
          "internalType": "bool",
          "name": "",
          "type": "bool"
        }
      ],
      "stateMutability": "nonpayable",
      "type": "function"
    },
    {
      "inputs": [
        {
          "internalType": "uint256",
          "name": "uID",
          "type": "uint256"
        },
        {
          "internalType": "address",
          "name": "token",
          "type": "address"
        },
        {
          "internalType": "address",
          "name": "to",
          "type": "address"
        },
        {
          "internalType": "uint256",
          "name": "amount",
          "type": "uint256"
        }
      ],
      "name": "swapOut",
      "outputs": [
        {
          "internalType": "bool",
          "name": "",
          "type": "bool"
        }
      ],
      "stateMutability": "nonpayable",
      "type": "function"
    },
    {
      "inputs": [
        {
          "internalType": "address",
          "name": "newOwner",
          "type": "address"
        }
      ],
      "name": "transferOwnership",
      "outputs": [],
      "stateMutability": "nonpayable",
      "type": "function"
    },
    {
      "inputs": [],
      "name": "wNativeToken",
      "outputs": [
        {
          "internalType": "address",
          "name": "",
          "type": "address"
        }
      ],
      "stateMutability": "view",
      "type": "function"
    },
    {
      "stateMutability": "payable",
      "type": "receive"
    }
  ],
  "bytecode": "0x608060405234801561001057600080fd5b5061237d806100206000396000f3fe6080604052600436106100f75760003560e01c8063a46911531161008a578063d8d3c59811610059578063d8d3c598146103c0578063f087b790146103fd578063f2fde38b1461043a578063fa188df2146104635761015c565b8063a4691153146102ff578063adc879e91461033c578063b5dc2cf114610367578063c4d66de8146103975761015c565b80637afe87ce116100c65780637afe87ce1461021d5780637b1d63181461025a57806384abaa5d146102975780638da5cb5b146102d45761015c565b80630bc24dc41461016157806358e393461461019e57806359c91f19146101db578063715018a6146102065761015c565b3661015c57606560009054906101000a900473ffffffffffffffffffffffffffffffffffffffff1673ffffffffffffffffffffffffffffffffffffffff163373ffffffffffffffffffffffffffffffffffffffff161461015a5761015961162d565b5b005b600080fd5b34801561016d57600080fd5b5061018860048036038101906101839190611827565b6104a0565b604051610195919061189e565b60405180910390f35b3480156101aa57600080fd5b506101c560048036038101906101c091906118ef565b610663565b6040516101d2919061189e565b60405180910390f35b3480156101e757600080fd5b506101f0610706565b6040516101fd9190611951565b60405180910390f35b34801561021257600080fd5b5061021b61072c565b005b34801561022957600080fd5b50610244600480360381019061023f91906118ef565b610740565b604051610251919061189e565b60405180910390f35b34801561026657600080fd5b50610281600480360381019061027c919061196c565b6107e3565b60405161028e919061189e565b60405180910390f35b3480156102a357600080fd5b506102be60048036038101906102b991906119ac565b610862565b6040516102cb919061189e565b60405180910390f35b3480156102e057600080fd5b506102e9610942565b6040516102f69190611951565b60405180910390f35b34801561030b57600080fd5b5061032660048036038101906103219190611a13565b61096c565b604051610333919061189e565b60405180910390f35b34801561034857600080fd5b50610351610b81565b60405161035e9190611a89565b60405180910390f35b610381600480360381019061037c91906118ef565b610b89565b60405161038e919061189e565b60405180910390f35b3480156103a357600080fd5b506103be60048036038101906103b99190611aa4565b610e26565b005b3480156103cc57600080fd5b506103e760048036038101906103e2919061196c565b611016565b6040516103f4919061189e565b60405180910390f35b34801561040957600080fd5b50610424600480360381019061041f91906119ac565b6110b6565b604051610431919061189e565b60405180910390f35b34801561044657600080fd5b50610461600480360381019061045c9190611aa4565b611301565b005b34801561046f57600080fd5b5061048a6004803603810190610485919061196c565b611385565b604051610497919061189e565b60405180910390f35b60006104aa611404565b60005b8351811015610658578381815181106104c9576104c8611ad1565b5b602002602001015173ffffffffffffffffffffffffffffffffffffffff16633092afd5306040518263ffffffff1660e01b81526004016105099190611951565b600060405180830381600087803b15801561052357600080fd5b505af1158015610537573d6000803e3d6000fd5b5050505083818151811061054e5761054d611ad1565b5b602002602001015173ffffffffffffffffffffffffffffffffffffffff1663983b2d56846040518263ffffffff1660e01b815260040161058e9190611951565b600060405180830381600087803b1580156105a857600080fd5b505af11580156105bc573d6000803e3d6000fd5b505050508381815181106105d3576105d2611ad1565b5b602002602001015173ffffffffffffffffffffffffffffffffffffffff1663f2fde38b846040518263ffffffff1660e01b81526004016106139190611951565b600060405180830381600087803b15801561062d57600080fd5b505af1158015610641573d6000803e3d6000fd5b50505050808061065090611b2f565b9150506104ad565b506001905092915050565b600061066d611404565b8373ffffffffffffffffffffffffffffffffffffffff166340c10f1984846040518363ffffffff1660e01b81526004016106a8929190611b78565b602060405180830381600087803b1580156106c257600080fd5b505af11580156106d6573d6000803e3d6000fd5b505050506040513d601f19601f820116820180604052508101906106fa9190611bcd565b50600190509392505050565b606560009054906101000a900473ffffffffffffffffffffffffffffffffffffffff1681565b610734611404565b61073e6000611482565b565b600061074a611404565b8373ffffffffffffffffffffffffffffffffffffffff16639dc29fac84846040518363ffffffff1660e01b8152600401610785929190611b78565b602060405180830381600087803b15801561079f57600080fd5b505af11580156107b3573d6000803e3d6000fd5b505050506040513d601f19601f820116820180604052508101906107d79190611bcd565b50600190509392505050565b60006107ed611404565b8273ffffffffffffffffffffffffffffffffffffffff16633092afd5836040518263ffffffff1660e01b81526004016108269190611951565b600060405180830381600087803b15801561084057600080fd5b505af1158015610854573d6000803e3d6000fd5b505050506001905092915050565b60008473ffffffffffffffffffffffffffffffffffffffff16639dc29fac33856040518363ffffffff1660e01b815260040161089f929190611b78565b602060405180830381600087803b1580156108b957600080fd5b505af11580156108cd573d6000803e3d6000fd5b505050506040513d601f19601f820116820180604052508101906108f19190611bcd565b507f0dea2bda79c01765fe12bab1f2f83a866770be22b2eeb42df299651abccab627853386864687600260405161092e9796959493929190611c3f565b60405180910390a160019050949350505050565b6000603360009054906101000a900473ffffffffffffffffffffffffffffffffffffffff16905090565b6000610976611404565b606560009054906101000a900473ffffffffffffffffffffffffffffffffffffffff1673ffffffffffffffffffffffffffffffffffffffff168473ffffffffffffffffffffffffffffffffffffffff16631bc7e7906040518163ffffffff1660e01b815260040160206040518083038186803b1580156109f557600080fd5b505afa158015610a09573d6000803e3d6000fd5b505050506040513d601f19601f82011682018060405250810190610a2d9190611cc3565b73ffffffffffffffffffffffffffffffffffffffff161415610ae1578373ffffffffffffffffffffffffffffffffffffffff1663460671a886858560006040518563ffffffff1660e01b8152600401610a899493929190611d2b565b602060405180830381600087803b158015610aa357600080fd5b505af1158015610ab7573d6000803e3d6000fd5b505050506040513d601f19601f82011682018060405250810190610adb9190611bcd565b50610b75565b8373ffffffffffffffffffffffffffffffffffffffff1663460671a886858560016040518563ffffffff1660e01b8152600401610b219493929190611dab565b602060405180830381600087803b158015610b3b57600080fd5b505af1158015610b4f573d6000803e3d6000fd5b505050506040513d601f19601f82011682018060405250810190610b739190611bcd565b505b60019050949350505050565b600046905090565b6000606560009054906101000a900473ffffffffffffffffffffffffffffffffffffffff1673ffffffffffffffffffffffffffffffffffffffff168473ffffffffffffffffffffffffffffffffffffffff16631bc7e7906040518163ffffffff1660e01b815260040160206040518083038186803b158015610c0a57600080fd5b505afa158015610c1e573d6000803e3d6000fd5b505050506040513d601f19601f82011682018060405250810190610c429190611cc3565b73ffffffffffffffffffffffffffffffffffffffff1614610c98576040517f08c379a0000000000000000000000000000000000000000000000000000000008152600401610c8f90611e73565b60405180910390fd5b606560009054906101000a900473ffffffffffffffffffffffffffffffffffffffff1673ffffffffffffffffffffffffffffffffffffffff1663d0e30db0346040518263ffffffff1660e01b81526004016000604051808303818588803b158015610d0257600080fd5b505af1158015610d16573d6000803e3d6000fd5b5050505050606560009054906101000a900473ffffffffffffffffffffffffffffffffffffffff1673ffffffffffffffffffffffffffffffffffffffff1663a9059cbb85346040518363ffffffff1660e01b8152600401610d78929190611b78565b602060405180830381600087803b158015610d9257600080fd5b505af1158015610da6573d6000803e3d6000fd5b505050506040513d601f19601f82011682018060405250810190610dca9190611bcd565b610dd757610dd661162d565b5b7f0dea2bda79c01765fe12bab1f2f83a866770be22b2eeb42df299651abccab6278433853446876000604051610e139796959493929190611e93565b60405180910390a1600190509392505050565b60008060019054906101000a900460ff16159050808015610e575750600160008054906101000a900460ff1660ff16105b80610e845750610e6630611548565b158015610e835750600160008054906101000a900460ff1660ff16145b5b610ec3576040517f08c379a0000000000000000000000000000000000000000000000000000000008152600401610eba90611f74565b60405180910390fd5b60016000806101000a81548160ff021916908360ff1602179055508015610f00576001600060016101000a81548160ff0219169083151502179055505b600073ffffffffffffffffffffffffffffffffffffffff168273ffffffffffffffffffffffffffffffffffffffff161415610f70576040517f08c379a0000000000000000000000000000000000000000000000000000000008152600401610f6790612006565b60405180910390fd5b610f7861156b565b81606560006101000a81548173ffffffffffffffffffffffffffffffffffffffff021916908373ffffffffffffffffffffffffffffffffffffffff16021790555080156110125760008060016101000a81548160ff0219169083151502179055507f7f26b83ff96e1f2b6a682f133852f6798a09c465da95921460cefb384740249860016040516110099190612064565b60405180910390a15b5050565b6000611020611404565b8273ffffffffffffffffffffffffffffffffffffffff166344fc95a5836040518263ffffffff1660e01b81526004016110599190611951565b602060405180830381600087803b15801561107357600080fd5b505af1158015611087573d6000803e3d6000fd5b505050506040513d601f19601f820116820180604052508101906110ab9190611bcd565b506001905092915050565b60008073ffffffffffffffffffffffffffffffffffffffff168573ffffffffffffffffffffffffffffffffffffffff16631bc7e7906040518163ffffffff1660e01b815260040160206040518083038186803b15801561111557600080fd5b505afa158015611129573d6000803e3d6000fd5b505050506040513d601f19601f8201168201806040525081019061114d9190611cc3565b73ffffffffffffffffffffffffffffffffffffffff1614156111a4576040517f08c379a000000000000000000000000000000000000000000000000000000000815260040161119b906120f1565b60405180910390fd5b8473ffffffffffffffffffffffffffffffffffffffff16631bc7e7906040518163ffffffff1660e01b815260040160206040518083038186803b1580156111ea57600080fd5b505afa1580156111fe573d6000803e3d6000fd5b505050506040513d601f19601f820116820180604052508101906112229190611cc3565b73ffffffffffffffffffffffffffffffffffffffff166323b872dd3387866040518463ffffffff1660e01b815260040161125e93929190612111565b602060405180830381600087803b15801561127857600080fd5b505af115801561128c573d6000803e3d6000fd5b505050506040513d601f19601f820116820180604052508101906112b09190611bcd565b507f0dea2bda79c01765fe12bab1f2f83a866770be22b2eeb42df299651abccab62785338686468760016040516112ed9796959493929190612148565b60405180910390a160019050949350505050565b611309611404565b600073ffffffffffffffffffffffffffffffffffffffff168173ffffffffffffffffffffffffffffffffffffffff161415611379576040517f08c379a000000000000000000000000000000000000000000000000000000000815260040161137090612229565b60405180910390fd5b61138281611482565b50565b600061138f611404565b8273ffffffffffffffffffffffffffffffffffffffff1663983b2d56836040518263ffffffff1660e01b81526004016113c89190611951565b600060405180830381600087803b1580156113e257600080fd5b505af11580156113f6573d6000803e3d6000fd5b505050506001905092915050565b61140c6115c4565b73ffffffffffffffffffffffffffffffffffffffff1661142a610942565b73ffffffffffffffffffffffffffffffffffffffff1614611480576040517f08c379a000000000000000000000000000000000000000000000000000000000815260040161147790612295565b60405180910390fd5b565b6000603360009054906101000a900473ffffffffffffffffffffffffffffffffffffffff16905081603360006101000a81548173ffffffffffffffffffffffffffffffffffffffff021916908373ffffffffffffffffffffffffffffffffffffffff1602179055508173ffffffffffffffffffffffffffffffffffffffff168173ffffffffffffffffffffffffffffffffffffffff167f8be0079c531659141344cd1fd0a4f28419497f9722a3daafe3b4186f6b6457e060405160405180910390a35050565b6000808273ffffffffffffffffffffffffffffffffffffffff163b119050919050565b600060019054906101000a900460ff166115ba576040517f08c379a00000000000000000000000000000000000000000000000000000000081526004016115b190612327565b60405180910390fd5b6115c26115cc565b565b600033905090565b600060019054906101000a900460ff1661161b576040517f08c379a000000000000000000000000000000000000000000000000000000000815260040161161290612327565b60405180910390fd5b61162b6116266115c4565b611482565b565b7f4e487b7100000000000000000000000000000000000000000000000000000000600052600160045260246000fd5b6000604051905090565b600080fd5b600080fd5b600080fd5b6000601f19601f8301169050919050565b7f4e487b7100000000000000000000000000000000000000000000000000000000600052604160045260246000fd5b6116be82611675565b810181811067ffffffffffffffff821117156116dd576116dc611686565b5b80604052505050565b60006116f061165c565b90506116fc82826116b5565b919050565b600067ffffffffffffffff82111561171c5761171b611686565b5b602082029050602081019050919050565b600080fd5b600073ffffffffffffffffffffffffffffffffffffffff82169050919050565b600061175d82611732565b9050919050565b61176d81611752565b811461177857600080fd5b50565b60008135905061178a81611764565b92915050565b60006117a361179e84611701565b6116e6565b905080838252602082019050602084028301858111156117c6576117c561172d565b5b835b818110156117ef57806117db888261177b565b8452602084019350506020810190506117c8565b5050509392505050565b600082601f83011261180e5761180d611670565b5b813561181e848260208601611790565b91505092915050565b6000806040838503121561183e5761183d611666565b5b600083013567ffffffffffffffff81111561185c5761185b61166b565b5b611868858286016117f9565b92505060206118798582860161177b565b9150509250929050565b60008115159050919050565b61189881611883565b82525050565b60006020820190506118b3600083018461188f565b92915050565b6000819050919050565b6118cc816118b9565b81146118d757600080fd5b50565b6000813590506118e9816118c3565b92915050565b60008060006060848603121561190857611907611666565b5b60006119168682870161177b565b93505060206119278682870161177b565b9250506040611938868287016118da565b9150509250925092565b61194b81611752565b82525050565b60006020820190506119666000830184611942565b92915050565b6000806040838503121561198357611982611666565b5b60006119918582860161177b565b92505060206119a28582860161177b565b9150509250929050565b600080600080608085870312156119c6576119c5611666565b5b60006119d48782880161177b565b94505060206119e58782880161177b565b93505060406119f6878288016118da565b9250506060611a07878288016118da565b91505092959194509250565b60008060008060808587031215611a2d57611a2c611666565b5b6000611a3b878288016118da565b9450506020611a4c8782880161177b565b9350506040611a5d8782880161177b565b9250506060611a6e878288016118da565b91505092959194509250565b611a83816118b9565b82525050565b6000602082019050611a9e6000830184611a7a565b92915050565b600060208284031215611aba57611ab9611666565b5b6000611ac88482850161177b565b91505092915050565b7f4e487b7100000000000000000000000000000000000000000000000000000000600052603260045260246000fd5b7f4e487b7100000000000000000000000000000000000000000000000000000000600052601160045260246000fd5b6000611b3a826118b9565b91507fffffffffffffffffffffffffffffffffffffffffffffffffffffffffffffffff821415611b6d57611b6c611b00565b5b600182019050919050565b6000604082019050611b8d6000830185611942565b611b9a6020830184611a7a565b9392505050565b611baa81611883565b8114611bb557600080fd5b50565b600081519050611bc781611ba1565b92915050565b600060208284031215611be357611be2611666565b5b6000611bf184828501611bb8565b91505092915050565b6000819050919050565b6000819050919050565b6000611c29611c24611c1f84611bfa565b611c04565b6118b9565b9050919050565b611c3981611c0e565b82525050565b600060e082019050611c54600083018a611942565b611c616020830189611942565b611c6e6040830188611942565b611c7b6060830187611a7a565b611c886080830186611a7a565b611c9560a0830185611a7a565b611ca260c0830184611c30565b98975050505050505050565b600081519050611cbd81611764565b92915050565b600060208284031215611cd957611cd8611666565b5b6000611ce784828501611cae565b91505092915050565b6000819050919050565b6000611d15611d10611d0b84611cf0565b611c04565b6118b9565b9050919050565b611d2581611cfa565b82525050565b6000608082019050611d406000830187611a7a565b611d4d6020830186611942565b611d5a6040830185611a7a565b611d676060830184611d1c565b95945050505050565b6000819050919050565b6000611d95611d90611d8b84611d70565b611c04565b6118b9565b9050919050565b611da581611d7a565b82525050565b6000608082019050611dc06000830187611a7a565b611dcd6020830186611942565b611dda6040830185611a7a565b611de76060830184611d9c565b95945050505050565b600082825260208201905092915050565b7f56427269646765526f757465723a204f726967696e616c20746f6b656e20697360008201527f206e6f74206e617469766520746f6b656e2e0000000000000000000000000000602082015250565b6000611e5d603283611df0565b9150611e6882611e01565b604082019050919050565b60006020820190508181036000830152611e8c81611e50565b9050919050565b600060e082019050611ea8600083018a611942565b611eb56020830189611942565b611ec26040830188611942565b611ecf6060830187611a7a565b611edc6080830186611a7a565b611ee960a0830185611a7a565b611ef660c0830184611d1c565b98975050505050505050565b7f496e697469616c697a61626c653a20636f6e747261637420697320616c72656160008201527f647920696e697469616c697a6564000000000000000000000000000000000000602082015250565b6000611f5e602e83611df0565b9150611f6982611f02565b604082019050919050565b60006020820190508181036000830152611f8d81611f51565b9050919050565b7f56427269646765526f757465723a2057726170706564206e617469766520746f60008201527f6b656e20616464726573732063616e2774206265207a65726f2e000000000000602082015250565b6000611ff0603a83611df0565b9150611ffb82611f94565b604082019050919050565b6000602082019050818103600083015261201f81611fe3565b9050919050565b600060ff82169050919050565b600061204e61204961204484611d70565b611c04565b612026565b9050919050565b61205e81612033565b82525050565b60006020820190506120796000830184612055565b92915050565b7f56427269646765526f757465723a204861766520746f2063616c6c207377617060008201527f496e4f42546f6b656e2066756e6374696f6e2e00000000000000000000000000602082015250565b60006120db603383611df0565b91506120e68261207f565b604082019050919050565b6000602082019050818103600083015261210a816120ce565b9050919050565b60006060820190506121266000830186611942565b6121336020830185611942565b6121406040830184611a7a565b949350505050565b600060e08201905061215d600083018a611942565b61216a6020830189611942565b6121776040830188611942565b6121846060830187611a7a565b6121916080830186611a7a565b61219e60a0830185611a7a565b6121ab60c0830184611d9c565b98975050505050505050565b7f4f776e61626c653a206e6577206f776e657220697320746865207a65726f206160008201527f6464726573730000000000000000000000000000000000000000000000000000602082015250565b6000612213602683611df0565b915061221e826121b7565b604082019050919050565b6000602082019050818103600083015261224281612206565b9050919050565b7f4f776e61626c653a2063616c6c6572206973206e6f7420746865206f776e6572600082015250565b600061227f602083611df0565b915061228a82612249565b602082019050919050565b600060208201905081810360008301526122ae81612272565b9050919050565b7f496e697469616c697a61626c653a20636f6e7472616374206973206e6f74206960008201527f6e697469616c697a696e67000000000000000000000000000000000000000000602082015250565b6000612311602b83611df0565b915061231c826122b5565b604082019050919050565b6000602082019050818103600083015261234081612304565b905091905056fea2646970667358221220bd925aa64199821d3e80f6ea156b2847f6d27a61d0fead1003d3db40f1d9d1f064736f6c63430008090033",
  "linkReferences": {},
  "deployedLinkReferences": {}
}