{
  "_format": "hh-sol-artifact-1",
  "contractName": "VBridgeERC20",
  "sourceName": "contracts/VBridgeERC20.sol",
  "abi": [
    {
      "inputs": [
        {
          "internalType": "string",
          "name": "_name",
          "type": "string"
        },
        {
          "internalType": "string",
          "name": "_symbol",
          "type": "string"
        },
        {
          "internalType": "uint8",
          "name": "_decimal",
          "type": "uint8"
        },
        {
          "internalType": "address",
          "name": "_orgToken",
          "type": "address"
        }
      ],
      "stateMutability": "nonpayable",
      "type": "constructor"
    },
    {
      "anonymous": false,
      "inputs": [
        {
          "indexed": true,
          "internalType": "address",
          "name": "owner",
          "type": "address"
        },
        {
          "indexed": true,
          "internalType": "address",
          "name": "spender",
          "type": "address"
        },
        {
          "indexed": false,
          "internalType": "uint256",
          "name": "value",
          "type": "uint256"
        }
      ],
      "name": "Approval",
      "type": "event"
    },
    {
      "anonymous": false,
      "inputs": [
        {
          "indexed": false,
          "internalType": "uint256",
          "name": "uID",
          "type": "uint256"
        },
        {
          "indexed": true,
          "internalType": "address",
          "name": "account",
          "type": "address"
        },
        {
          "indexed": false,
          "internalType": "uint256",
          "name": "amount",
          "type": "uint256"
        },
        {
          "indexed": false,
          "internalType": "uint256",
          "name": "form",
          "type": "uint256"
        }
      ],
      "name": "LogVBTokenSwapOut",
      "type": "event"
    },
    {
      "anonymous": false,
      "inputs": [
        {
          "indexed": true,
          "internalType": "address",
          "name": "previousOwner",
          "type": "address"
        },
        {
          "indexed": true,
          "internalType": "address",
          "name": "newOwner",
          "type": "address"
        }
      ],
      "name": "OwnershipTransferred",
      "type": "event"
    },
    {
      "anonymous": false,
      "inputs": [
        {
          "indexed": true,
          "internalType": "address",
          "name": "from",
          "type": "address"
        },
        {
          "indexed": true,
          "internalType": "address",
          "name": "to",
          "type": "address"
        },
        {
          "indexed": false,
          "internalType": "uint256",
          "name": "value",
          "type": "uint256"
        }
      ],
      "name": "Transfer",
      "type": "event"
    },
    {
      "inputs": [
        {
          "internalType": "address",
          "name": "_minter",
          "type": "address"
        }
      ],
      "name": "addMinter",
      "outputs": [],
      "stateMutability": "nonpayable",
      "type": "function"
    },
    {
      "inputs": [
        {
          "internalType": "address",
          "name": "owner",
          "type": "address"
        },
        {
          "internalType": "address",
          "name": "spender",
          "type": "address"
        }
      ],
      "name": "allowance",
      "outputs": [
        {
          "internalType": "uint256",
          "name": "",
          "type": "uint256"
        }
      ],
      "stateMutability": "view",
      "type": "function"
    },
    {
      "inputs": [
        {
          "internalType": "address",
          "name": "spender",
          "type": "address"
        },
        {
          "internalType": "uint256",
          "name": "amount",
          "type": "uint256"
        }
      ],
      "name": "approve",
      "outputs": [
        {
          "internalType": "bool",
          "name": "",
          "type": "bool"
        }
      ],
      "stateMutability": "nonpayable",
      "type": "function"
    },
    {
      "inputs": [
        {
          "internalType": "address",
          "name": "account",
          "type": "address"
        }
      ],
      "name": "balanceOf",
      "outputs": [
        {
          "internalType": "uint256",
          "name": "",
          "type": "uint256"
        }
      ],
      "stateMutability": "view",
      "type": "function"
    },
    {
      "inputs": [
        {
          "internalType": "address",
          "name": "from",
          "type": "address"
        },
        {
          "internalType": "uint256",
          "name": "amount",
          "type": "uint256"
        }
      ],
      "name": "burn",
      "outputs": [
        {
          "internalType": "bool",
          "name": "",
          "type": "bool"
        }
      ],
      "stateMutability": "nonpayable",
      "type": "function"
    },
    {
      "inputs": [],
      "name": "decimals",
      "outputs": [
        {
          "internalType": "uint8",
          "name": "",
          "type": "uint8"
        }
      ],
      "stateMutability": "view",
      "type": "function"
    },
    {
      "inputs": [
        {
          "internalType": "address",
          "name": "spender",
          "type": "address"
        },
        {
          "internalType": "uint256",
          "name": "subtractedValue",
          "type": "uint256"
        }
      ],
      "name": "decreaseAllowance",
      "outputs": [
        {
          "internalType": "bool",
          "name": "",
          "type": "bool"
        }
      ],
      "stateMutability": "nonpayable",
      "type": "function"
    },
    {
      "inputs": [
        {
          "internalType": "uint256",
          "name": "amount",
          "type": "uint256"
        },
        {
          "internalType": "address",
          "name": "to",
          "type": "address"
        }
      ],
      "name": "deposit",
      "outputs": [
        {
          "internalType": "uint256",
          "name": "",
          "type": "uint256"
        }
      ],
      "stateMutability": "nonpayable",
      "type": "function"
    },
    {
      "inputs": [
        {
          "internalType": "uint256",
          "name": "amount",
          "type": "uint256"
        }
      ],
      "name": "deposit",
      "outputs": [
        {
          "internalType": "uint256",
          "name": "",
          "type": "uint256"
        }
      ],
      "stateMutability": "nonpayable",
      "type": "function"
    },
    {
      "inputs": [],
      "name": "deposit",
      "outputs": [
        {
          "internalType": "uint256",
          "name": "",
          "type": "uint256"
        }
      ],
      "stateMutability": "nonpayable",
      "type": "function"
    },
    {
      "inputs": [],
      "name": "getOrgToken",
      "outputs": [
        {
          "internalType": "address",
          "name": "",
          "type": "address"
        }
      ],
      "stateMutability": "view",
      "type": "function"
    },
    {
      "inputs": [
        {
          "internalType": "address",
          "name": "spender",
          "type": "address"
        },
        {
          "internalType": "uint256",
          "name": "addedValue",
          "type": "uint256"
        }
      ],
      "name": "increaseAllowance",
      "outputs": [
        {
          "internalType": "bool",
          "name": "",
          "type": "bool"
        }
      ],
      "stateMutability": "nonpayable",
      "type": "function"
    },
    {
      "inputs": [
        {
          "internalType": "address",
          "name": "_routerAddress",
          "type": "address"
        }
      ],
      "name": "init",
      "outputs": [],
      "stateMutability": "nonpayable",
      "type": "function"
    },
    {
      "inputs": [
        {
          "internalType": "address",
          "name": "",
          "type": "address"
        }
      ],
      "name": "isMinter",
      "outputs": [
        {
          "internalType": "bool",
          "name": "",
          "type": "bool"
        }
      ],
      "stateMutability": "view",
      "type": "function"
    },
    {
      "inputs": [
        {
          "internalType": "address",
          "name": "to",
          "type": "address"
        },
        {
          "internalType": "uint256",
          "name": "amount",
          "type": "uint256"
        }
      ],
      "name": "mint",
      "outputs": [
        {
          "internalType": "bool",
          "name": "",
          "type": "bool"
        }
      ],
      "stateMutability": "nonpayable",
      "type": "function"
    },
    {
      "inputs": [],
      "name": "name",
      "outputs": [
        {
          "internalType": "string",
          "name": "",
          "type": "string"
        }
      ],
      "stateMutability": "view",
      "type": "function"
    },
    {
      "inputs": [],
      "name": "orgToken",
      "outputs": [
        {
          "internalType": "address",
          "name": "",
          "type": "address"
        }
      ],
      "stateMutability": "view",
      "type": "function"
    },
    {
      "inputs": [],
      "name": "owner",
      "outputs": [
        {
          "internalType": "address",
          "name": "",
          "type": "address"
        }
      ],
      "stateMutability": "view",
      "type": "function"
    },
    {
      "inputs": [
        {
          "internalType": "address",
          "name": "_minter",
          "type": "address"
        }
      ],
      "name": "removeMinter",
      "outputs": [],
      "stateMutability": "nonpayable",
      "type": "function"
    },
    {
      "inputs": [],
      "name": "renounceOwnership",
      "outputs": [],
      "stateMutability": "nonpayable",
      "type": "function"
    },
    {
      "inputs": [
        {
          "internalType": "uint256",
          "name": "uID",
          "type": "uint256"
        },
        {
          "internalType": "address",
          "name": "to",
          "type": "address"
        },
        {
          "internalType": "uint256",
          "name": "amount",
          "type": "uint256"
        },
        {
          "internalType": "uint256",
          "name": "form",
          "type": "uint256"
        }
      ],
      "name": "swapOut",
      "outputs": [
        {
          "internalType": "bool",
          "name": "",
          "type": "bool"
        }
      ],
      "stateMutability": "nonpayable",
      "type": "function"
    },
    {
      "inputs": [],
      "name": "symbol",
      "outputs": [
        {
          "internalType": "string",
          "name": "",
          "type": "string"
        }
      ],
      "stateMutability": "view",
      "type": "function"
    },
    {
      "inputs": [],
      "name": "totalSupply",
      "outputs": [
        {
          "internalType": "uint256",
          "name": "",
          "type": "uint256"
        }
      ],
      "stateMutability": "view",
      "type": "function"
    },
    {
      "inputs": [
        {
          "internalType": "address",
          "name": "to",
          "type": "address"
        },
        {
          "internalType": "uint256",
          "name": "amount",
          "type": "uint256"
        }
      ],
      "name": "transfer",
      "outputs": [
        {
          "internalType": "bool",
          "name": "",
          "type": "bool"
        }
      ],
      "stateMutability": "nonpayable",
      "type": "function"
    },
    {
      "inputs": [
        {
          "internalType": "address",
          "name": "from",
          "type": "address"
        },
        {
          "internalType": "address",
          "name": "to",
          "type": "address"
        },
        {
          "internalType": "uint256",
          "name": "amount",
          "type": "uint256"
        }
      ],
      "name": "transferFrom",
      "outputs": [
        {
          "internalType": "bool",
          "name": "",
          "type": "bool"
        }
      ],
      "stateMutability": "nonpayable",
      "type": "function"
    },
    {
      "inputs": [
        {
          "internalType": "address",
          "name": "newOwner",
          "type": "address"
        }
      ],
      "name": "transferOwnership",
      "outputs": [],
      "stateMutability": "nonpayable",
      "type": "function"
    },
    {
      "inputs": [
        {
          "internalType": "uint256",
          "name": "amount",
          "type": "uint256"
        },
        {
          "internalType": "address",
          "name": "to",
          "type": "address"
        }
      ],
      "name": "withdraw",
      "outputs": [
        {
          "internalType": "uint256",
          "name": "",
          "type": "uint256"
        }
      ],
      "stateMutability": "nonpayable",
      "type": "function"
    },
    {
      "inputs": [
        {
          "internalType": "uint256",
          "name": "amount",
          "type": "uint256"
        }
      ],
      "name": "withdraw",
      "outputs": [
        {
          "internalType": "uint256",
          "name": "",
          "type": "uint256"
        }
      ],
      "stateMutability": "nonpayable",
      "type": "function"
    },
    {
      "inputs": [],
      "name": "withdraw",
      "outputs": [
        {
          "internalType": "uint256",
          "name": "",
          "type": "uint256"
        }
      ],
      "stateMutability": "nonpayable",
      "type": "function"
    },
    {
      "stateMutability": "payable",
      "type": "receive"
    }
  ],
  "bytecode": "0x60c06040523480156200001157600080fd5b5060405162003a8638038062003a868339818101604052810190620000379190620004ef565b8383816003908051906020019062000051929190620001ff565b5080600490805190602001906200006a929190620001ff565b5050506200008d620000816200013160201b60201c565b6200013960201b60201c565b6001600660003373ffffffffffffffffffffffffffffffffffffffff1673ffffffffffffffffffffffffffffffffffffffff16815260200190815260200160002060006101000a81548160ff0219169083151502179055508073ffffffffffffffffffffffffffffffffffffffff1660a08173ffffffffffffffffffffffffffffffffffffffff16815250508160ff1660808160ff16815250505050505062000604565b600033905090565b6000600560009054906101000a900473ffffffffffffffffffffffffffffffffffffffff16905081600560006101000a81548173ffffffffffffffffffffffffffffffffffffffff021916908373ffffffffffffffffffffffffffffffffffffffff1602179055508173ffffffffffffffffffffffffffffffffffffffff168173ffffffffffffffffffffffffffffffffffffffff167f8be0079c531659141344cd1fd0a4f28419497f9722a3daafe3b4186f6b6457e060405160405180910390a35050565b8280546200020d90620005ce565b90600052602060002090601f0160209004810192826200023157600085556200027d565b82601f106200024c57805160ff19168380011785556200027d565b828001600101855582156200027d579182015b828111156200027c5782518255916020019190600101906200025f565b5b5090506200028c919062000290565b5090565b5b80821115620002ab57600081600090555060010162000291565b5090565b6000604051905090565b600080fd5b600080fd5b600080fd5b600080fd5b6000601f19601f8301169050919050565b7f4e487b7100000000000000000000000000000000000000000000000000000000600052604160045260246000fd5b6200031882620002cd565b810181811067ffffffffffffffff821117156200033a5762000339620002de565b5b80604052505050565b60006200034f620002af565b90506200035d82826200030d565b919050565b600067ffffffffffffffff82111562000380576200037f620002de565b5b6200038b82620002cd565b9050602081019050919050565b60005b83811015620003b85780820151818401526020810190506200039b565b83811115620003c8576000848401525b50505050565b6000620003e5620003df8462000362565b62000343565b905082815260208101848484011115620004045762000403620002c8565b5b6200041184828562000398565b509392505050565b600082601f830112620004315762000430620002c3565b5b815162000443848260208601620003ce565b91505092915050565b600060ff82169050919050565b62000464816200044c565b81146200047057600080fd5b50565b600081519050620004848162000459565b92915050565b600073ffffffffffffffffffffffffffffffffffffffff82169050919050565b6000620004b7826200048a565b9050919050565b620004c981620004aa565b8114620004d557600080fd5b50565b600081519050620004e981620004be565b92915050565b600080600080608085870312156200050c576200050b620002b9565b5b600085015167ffffffffffffffff8111156200052d576200052c620002be565b5b6200053b8782880162000419565b945050602085015167ffffffffffffffff8111156200055f576200055e620002be565b5b6200056d8782880162000419565b9350506040620005808782880162000473565b92505060606200059387828801620004d8565b91505092959194509250565b7f4e487b7100000000000000000000000000000000000000000000000000000000600052602260045260246000fd5b60006002820490506001821680620005e757607f821691505b60208210811415620005fe57620005fd6200059f565b5b50919050565b60805160a0516134086200067e600039600081816108970152818161090001528181610b5001528181610b8d01528181610c4401528181610d73015281816111f4015281816113cc015281816114230152818161147501528181611c1001528181611c670152611cb001526000610a1501526134086000f3fe6080604052600436106101c55760003560e01c8063460671a8116100f75780639dc29fac11610095578063b6b55f2511610064578063b6b55f25146106d4578063d0e30db014610711578063dd62ed3e1461073c578063f2fde38b14610779576101cc565b80639dc29fac146105e0578063a457c2d71461061d578063a9059cbb1461065a578063aa271e1a14610697576101cc565b8063715018a6116100d1578063715018a61461054a5780638da5cb5b1461056157806395d89b411461058c578063983b2d56146105b7576101cc565b8063460671a8146104935780636e553f65146104d057806370a082311461050d576101cc565b80632e1a7d4d11610164578063313ce5671161013e578063313ce567146103c357806339509351146103ee5780633ccfd60b1461042b57806340c10f1914610456576101cc565b80632e1a7d4d146103325780632faf7d6b1461036f5780633092afd51461039a576101cc565b806318160ddd116101a057806318160ddd1461027657806319ab453c146102a15780631bc7e790146102ca57806323b872dd146102f5576101cc565b8062f714ce146101d157806306fdde031461020e578063095ea7b314610239576101cc565b366101cc57005b600080fd5b3480156101dd57600080fd5b506101f860048036038101906101f3919061235d565b6107a2565b60405161020591906123ac565b60405180910390f35b34801561021a57600080fd5b506102236107b7565b6040516102309190612460565b60405180910390f35b34801561024557600080fd5b50610260600480360381019061025b9190612482565b610849565b60405161026d91906124dd565b60405180910390f35b34801561028257600080fd5b5061028b61086c565b60405161029891906123ac565b60405180910390f35b3480156102ad57600080fd5b506102c860048036038101906102c391906124f8565b610876565b005b3480156102d657600080fd5b506102df610893565b6040516102ec9190612534565b60405180910390f35b34801561030157600080fd5b5061031c6004803603810190610317919061254f565b6108bb565b60405161032991906124dd565b60405180910390f35b34801561033e57600080fd5b50610359600480360381019061035491906125a2565b6108ea565b60405161036691906123ac565b60405180910390f35b34801561037b57600080fd5b506103846108fe565b6040516103919190612534565b60405180910390f35b3480156103a657600080fd5b506103c160048036038101906103bc91906124f8565b610922565b005b3480156103cf57600080fd5b506103d8610a11565b6040516103e591906125eb565b60405180910390f35b3480156103fa57600080fd5b5061041560048036038101906104109190612482565b610a39565b60405161042291906124dd565b60405180910390f35b34801561043757600080fd5b50610440610a70565b60405161044d91906123ac565b60405180910390f35b34801561046257600080fd5b5061047d60048036038101906104789190612482565b610a8a565b60405161048a91906124dd565b60405180910390f35b34801561049f57600080fd5b506104ba60048036038101906104b59190612606565b610b2c565b6040516104c791906124dd565b60405180910390f35b3480156104dc57600080fd5b506104f760048036038101906104f2919061235d565b610e7f565b60405161050491906123ac565b60405180910390f35b34801561051957600080fd5b50610534600480360381019061052f91906124f8565b610e93565b60405161054191906123ac565b60405180910390f35b34801561055657600080fd5b5061055f610edb565b005b34801561056d57600080fd5b50610576610eef565b6040516105839190612534565b60405180910390f35b34801561059857600080fd5b506105a1610f19565b6040516105ae9190612460565b60405180910390f35b3480156105c357600080fd5b506105de60048036038101906105d991906124f8565b610fab565b005b3480156105ec57600080fd5b5061060760048036038101906106029190612482565b61107e565b60405161061491906124dd565b60405180910390f35b34801561062957600080fd5b50610644600480360381019061063f9190612482565b611120565b60405161065191906124dd565b60405180910390f35b34801561066657600080fd5b50610681600480360381019061067c9190612482565b611197565b60405161068e91906124dd565b60405180910390f35b3480156106a357600080fd5b506106be60048036038101906106b991906124f8565b6111ba565b6040516106cb91906124dd565b60405180910390f35b3480156106e057600080fd5b506106fb60048036038101906106f691906125a2565b6111da565b60405161070891906123ac565b60405180910390f35b34801561071d57600080fd5b506107266111ed565b60405161073391906123ac565b60405180910390f35b34801561074857600080fd5b50610763600480360381019061075e919061266d565b6112a6565b60405161077091906123ac565b60405180910390f35b34801561078557600080fd5b506107a0600480360381019061079b91906124f8565b61132d565b005b60006107af3384846113b1565b905092915050565b6060600380546107c6906126dc565b80601f01602080910402602001604051908101604052809291908181526020018280546107f2906126dc565b801561083f5780601f106108145761010080835404028352916020019161083f565b820191906000526020600020905b81548152906001019060200180831161082257829003601f168201915b5050505050905090565b6000806108546114c3565b90506108618185856114cb565b600191505092915050565b6000600254905090565b61087e611696565b61088781610fab565b6108908161132d565b50565b60007f0000000000000000000000000000000000000000000000000000000000000000905090565b6000806108c66114c3565b90506108d3858285611714565b6108de8585856117a0565b60019150509392505050565b60006108f73383336113b1565b9050919050565b7f000000000000000000000000000000000000000000000000000000000000000081565b61092a611696565b600660008273ffffffffffffffffffffffffffffffffffffffff1673ffffffffffffffffffffffffffffffffffffffff16815260200190815260200160002060009054906101000a900460ff166109b6576040517f08c379a00000000000000000000000000000000000000000000000000000000081526004016109ad90612780565b60405180910390fd5b6000600660008373ffffffffffffffffffffffffffffffffffffffff1673ffffffffffffffffffffffffffffffffffffffff16815260200190815260200160002060006101000a81548160ff02191690831515021790555050565b60007f0000000000000000000000000000000000000000000000000000000000000000905090565b600080610a446114c3565b9050610a65818585610a5685896112a6565b610a6091906127cf565b6114cb565b600191505092915050565b6000610a8533610a7f33610e93565b336113b1565b905090565b6000600660003373ffffffffffffffffffffffffffffffffffffffff1673ffffffffffffffffffffffffffffffffffffffff16815260200190815260200160002060009054906101000a900460ff16610b18576040517f08c379a0000000000000000000000000000000000000000000000000000000008152600401610b0f90612871565b60405180910390fd5b610b228383611a18565b6001905092915050565b6000610b36611696565b600073ffffffffffffffffffffffffffffffffffffffff167f000000000000000000000000000000000000000000000000000000000000000073ffffffffffffffffffffffffffffffffffffffff1614610e1557827f000000000000000000000000000000000000000000000000000000000000000073ffffffffffffffffffffffffffffffffffffffff166370a08231306040518263ffffffff1660e01b8152600401610be49190612534565b60206040518083038186803b158015610bfc57600080fd5b505afa158015610c10573d6000803e3d6000fd5b505050506040513d601f19601f82011682018060405250810190610c3491906128a6565b10610e14576000821415610d6c577f000000000000000000000000000000000000000000000000000000000000000073ffffffffffffffffffffffffffffffffffffffff16632e1a7d4d846040518263ffffffff1660e01b8152600401610c9b91906123ac565b600060405180830381600087803b158015610cb557600080fd5b505af1158015610cc9573d6000803e3d6000fd5b505050508373ffffffffffffffffffffffffffffffffffffffff166108fc849081150290604051600060405180830381858888f19350505050158015610d13573d6000803e3d6000fd5b508373ffffffffffffffffffffffffffffffffffffffff167f26dc001c4d438972e9e4439418a134fc479e7a370d7251f8c872ee12b7d0bce786856000604051610d5f93929190612918565b60405180910390a2610e0b565b610db784847f000000000000000000000000000000000000000000000000000000000000000073ffffffffffffffffffffffffffffffffffffffff16611b6f9092919063ffffffff16565b8373ffffffffffffffffffffffffffffffffffffffff167f26dc001c4d438972e9e4439418a134fc479e7a370d7251f8c872ee12b7d0bce786856001604051610e029392919061298a565b60405180910390a25b60019050610e77565b5b610e1f8484611a18565b8373ffffffffffffffffffffffffffffffffffffffff167f26dc001c4d438972e9e4439418a134fc479e7a370d7251f8c872ee12b7d0bce786856002604051610e6a939291906129fc565b60405180910390a2600190505b949350505050565b6000610e8b8383611bf5565b905092915050565b60008060008373ffffffffffffffffffffffffffffffffffffffff1673ffffffffffffffffffffffffffffffffffffffff168152602001908152602001600020549050919050565b610ee3611696565b610eed6000611d08565b565b6000600560009054906101000a900473ffffffffffffffffffffffffffffffffffffffff16905090565b606060048054610f28906126dc565b80601f0160208091040260200160405190810160405280929190818152602001828054610f54906126dc565b8015610fa15780601f10610f7657610100808354040283529160200191610fa1565b820191906000526020600020905b815481529060010190602001808311610f8457829003601f168201915b5050505050905090565b610fb3611696565b600073ffffffffffffffffffffffffffffffffffffffff168173ffffffffffffffffffffffffffffffffffffffff161415611023576040517f08c379a000000000000000000000000000000000000000000000000000000000815260040161101a90612aa5565b60405180910390fd5b6001600660008373ffffffffffffffffffffffffffffffffffffffff1673ffffffffffffffffffffffffffffffffffffffff16815260200190815260200160002060006101000a81548160ff02191690831515021790555050565b6000600660003373ffffffffffffffffffffffffffffffffffffffff1673ffffffffffffffffffffffffffffffffffffffff16815260200190815260200160002060009054906101000a900460ff1661110c576040517f08c379a000000000000000000000000000000000000000000000000000000000815260040161110390612871565b60405180910390fd5b6111168383611dce565b6001905092915050565b60008061112b6114c3565b9050600061113982866112a6565b90508381101561117e576040517f08c379a000000000000000000000000000000000000000000000000000000000815260040161117590612b37565b60405180910390fd5b61118b82868684036114cb565b60019250505092915050565b6000806111a26114c3565b90506111af8185856117a0565b600191505092915050565b60066020528060005260406000206000915054906101000a900460ff1681565b60006111e68233611bf5565b9050919050565b60006112a17f000000000000000000000000000000000000000000000000000000000000000073ffffffffffffffffffffffffffffffffffffffff166370a08231336040518263ffffffff1660e01b815260040161124b9190612534565b60206040518083038186803b15801561126357600080fd5b505afa158015611277573d6000803e3d6000fd5b505050506040513d601f19601f8201168201806040525081019061129b91906128a6565b33611bf5565b905090565b6000600160008473ffffffffffffffffffffffffffffffffffffffff1673ffffffffffffffffffffffffffffffffffffffff16815260200190815260200160002060008373ffffffffffffffffffffffffffffffffffffffff1673ffffffffffffffffffffffffffffffffffffffff16815260200190815260200160002054905092915050565b611335611696565b600073ffffffffffffffffffffffffffffffffffffffff168173ffffffffffffffffffffffffffffffffffffffff1614156113a5576040517f08c379a000000000000000000000000000000000000000000000000000000000815260040161139c90612bc9565b60405180910390fd5b6113ae81611d08565b50565b60008073ffffffffffffffffffffffffffffffffffffffff167f000000000000000000000000000000000000000000000000000000000000000073ffffffffffffffffffffffffffffffffffffffff161415801561145b57503073ffffffffffffffffffffffffffffffffffffffff167f000000000000000000000000000000000000000000000000000000000000000073ffffffffffffffffffffffffffffffffffffffff1614155b61146457600080fd5b61146e8484611dce565b6114b982847f000000000000000000000000000000000000000000000000000000000000000073ffffffffffffffffffffffffffffffffffffffff16611b6f9092919063ffffffff16565b8290509392505050565b600033905090565b600073ffffffffffffffffffffffffffffffffffffffff168373ffffffffffffffffffffffffffffffffffffffff16141561153b576040517f08c379a000000000000000000000000000000000000000000000000000000000815260040161153290612c5b565b60405180910390fd5b600073ffffffffffffffffffffffffffffffffffffffff168273ffffffffffffffffffffffffffffffffffffffff1614156115ab576040517f08c379a00000000000000000000000000000000000000000000000000000000081526004016115a290612ced565b60405180910390fd5b80600160008573ffffffffffffffffffffffffffffffffffffffff1673ffffffffffffffffffffffffffffffffffffffff16815260200190815260200160002060008473ffffffffffffffffffffffffffffffffffffffff1673ffffffffffffffffffffffffffffffffffffffff168152602001908152602001600020819055508173ffffffffffffffffffffffffffffffffffffffff168373ffffffffffffffffffffffffffffffffffffffff167f8c5be1e5ebec7d5bd14f71427d1e84f3dd0314c0f7b2291e5b200ac8c7c3b9258360405161168991906123ac565b60405180910390a3505050565b61169e6114c3565b73ffffffffffffffffffffffffffffffffffffffff166116bc610eef565b73ffffffffffffffffffffffffffffffffffffffff1614611712576040517f08c379a000000000000000000000000000000000000000000000000000000000815260040161170990612d59565b60405180910390fd5b565b600061172084846112a6565b90507fffffffffffffffffffffffffffffffffffffffffffffffffffffffffffffffff811461179a578181101561178c576040517f08c379a000000000000000000000000000000000000000000000000000000000815260040161178390612dc5565b60405180910390fd5b61179984848484036114cb565b5b50505050565b600073ffffffffffffffffffffffffffffffffffffffff168373ffffffffffffffffffffffffffffffffffffffff161415611810576040517f08c379a000000000000000000000000000000000000000000000000000000000815260040161180790612e57565b60405180910390fd5b600073ffffffffffffffffffffffffffffffffffffffff168273ffffffffffffffffffffffffffffffffffffffff161415611880576040517f08c379a000000000000000000000000000000000000000000000000000000000815260040161187790612ee9565b60405180910390fd5b61188b838383611f9c565b60008060008573ffffffffffffffffffffffffffffffffffffffff1673ffffffffffffffffffffffffffffffffffffffff16815260200190815260200160002054905081811015611911576040517f08c379a000000000000000000000000000000000000000000000000000000000815260040161190890612f7b565b60405180910390fd5b8181036000808673ffffffffffffffffffffffffffffffffffffffff1673ffffffffffffffffffffffffffffffffffffffff16815260200190815260200160002081905550816000808573ffffffffffffffffffffffffffffffffffffffff1673ffffffffffffffffffffffffffffffffffffffff168152602001908152602001600020600082825401925050819055508273ffffffffffffffffffffffffffffffffffffffff168473ffffffffffffffffffffffffffffffffffffffff167fddf252ad1be2c89b69c2b068fc378daa952ba7f163c4a11628f55a4df523b3ef846040516119ff91906123ac565b60405180910390a3611a12848484611fa1565b50505050565b600073ffffffffffffffffffffffffffffffffffffffff168273ffffffffffffffffffffffffffffffffffffffff161415611a88576040517f08c379a0000000000000000000000000000000000000000000000000000000008152600401611a7f90612fe7565b60405180910390fd5b611a9460008383611f9c565b8060026000828254611aa691906127cf565b92505081905550806000808473ffffffffffffffffffffffffffffffffffffffff1673ffffffffffffffffffffffffffffffffffffffff168152602001908152602001600020600082825401925050819055508173ffffffffffffffffffffffffffffffffffffffff16600073ffffffffffffffffffffffffffffffffffffffff167fddf252ad1be2c89b69c2b068fc378daa952ba7f163c4a11628f55a4df523b3ef83604051611b5791906123ac565b60405180910390a3611b6b60008383611fa1565b5050565b611bf08363a9059cbb60e01b8484604051602401611b8e929190613007565b604051602081830303815290604052907bffffffffffffffffffffffffffffffffffffffffffffffffffffffff19166020820180517bffffffffffffffffffffffffffffffffffffffffffffffffffffffff8381831617835250505050611fa6565b505050565b60008073ffffffffffffffffffffffffffffffffffffffff167f000000000000000000000000000000000000000000000000000000000000000073ffffffffffffffffffffffffffffffffffffffff1614158015611c9f57503073ffffffffffffffffffffffffffffffffffffffff167f000000000000000000000000000000000000000000000000000000000000000073ffffffffffffffffffffffffffffffffffffffff1614155b611ca857600080fd5b611cf53330857f000000000000000000000000000000000000000000000000000000000000000073ffffffffffffffffffffffffffffffffffffffff1661206d909392919063ffffffff16565b611cff8284611a18565b82905092915050565b6000600560009054906101000a900473ffffffffffffffffffffffffffffffffffffffff16905081600560006101000a81548173ffffffffffffffffffffffffffffffffffffffff021916908373ffffffffffffffffffffffffffffffffffffffff1602179055508173ffffffffffffffffffffffffffffffffffffffff168173ffffffffffffffffffffffffffffffffffffffff167f8be0079c531659141344cd1fd0a4f28419497f9722a3daafe3b4186f6b6457e060405160405180910390a35050565b600073ffffffffffffffffffffffffffffffffffffffff168273ffffffffffffffffffffffffffffffffffffffff161415611e3e576040517f08c379a0000000000000000000000000000000000000000000000000000000008152600401611e35906130a2565b60405180910390fd5b611e4a82600083611f9c565b60008060008473ffffffffffffffffffffffffffffffffffffffff1673ffffffffffffffffffffffffffffffffffffffff16815260200190815260200160002054905081811015611ed0576040517f08c379a0000000000000000000000000000000000000000000000000000000008152600401611ec790613134565b60405180910390fd5b8181036000808573ffffffffffffffffffffffffffffffffffffffff1673ffffffffffffffffffffffffffffffffffffffff1681526020019081526020016000208190555081600260008282540392505081905550600073ffffffffffffffffffffffffffffffffffffffff168373ffffffffffffffffffffffffffffffffffffffff167fddf252ad1be2c89b69c2b068fc378daa952ba7f163c4a11628f55a4df523b3ef84604051611f8391906123ac565b60405180910390a3611f9783600084611fa1565b505050565b505050565b505050565b6000612008826040518060400160405280602081526020017f5361666545524332303a206c6f772d6c6576656c2063616c6c206661696c65648152508573ffffffffffffffffffffffffffffffffffffffff166120f69092919063ffffffff16565b905060008151111561206857808060200190518101906120289190613180565b612067576040517f08c379a000000000000000000000000000000000000000000000000000000000815260040161205e9061321f565b60405180910390fd5b5b505050565b6120f0846323b872dd60e01b85858560405160240161208e9392919061323f565b604051602081830303815290604052907bffffffffffffffffffffffffffffffffffffffffffffffffffffffff19166020820180517bffffffffffffffffffffffffffffffffffffffffffffffffffffffff8381831617835250505050611fa6565b50505050565b6060612105848460008561210e565b90509392505050565b606082471015612153576040517f08c379a000000000000000000000000000000000000000000000000000000000815260040161214a906132e8565b60405180910390fd5b6000808673ffffffffffffffffffffffffffffffffffffffff16858760405161217c919061334f565b60006040518083038185875af1925050503d80600081146121b9576040519150601f19603f3d011682016040523d82523d6000602084013e6121be565b606091505b50915091506121cf878383876121db565b92505050949350505050565b6060831561223e57600083511415612236576121f685612251565b612235576040517f08c379a000000000000000000000000000000000000000000000000000000000815260040161222c906133b2565b60405180910390fd5b5b829050612249565b6122488383612274565b5b949350505050565b6000808273ffffffffffffffffffffffffffffffffffffffff163b119050919050565b6000825111156122875781518083602001fd5b806040517f08c379a00000000000000000000000000000000000000000000000000000000081526004016122bb9190612460565b60405180910390fd5b600080fd5b6000819050919050565b6122dc816122c9565b81146122e757600080fd5b50565b6000813590506122f9816122d3565b92915050565b600073ffffffffffffffffffffffffffffffffffffffff82169050919050565b600061232a826122ff565b9050919050565b61233a8161231f565b811461234557600080fd5b50565b60008135905061235781612331565b92915050565b60008060408385031215612374576123736122c4565b5b6000612382858286016122ea565b925050602061239385828601612348565b9150509250929050565b6123a6816122c9565b82525050565b60006020820190506123c1600083018461239d565b92915050565b600081519050919050565b600082825260208201905092915050565b60005b838110156124015780820151818401526020810190506123e6565b83811115612410576000848401525b50505050565b6000601f19601f8301169050919050565b6000612432826123c7565b61243c81856123d2565b935061244c8185602086016123e3565b61245581612416565b840191505092915050565b6000602082019050818103600083015261247a8184612427565b905092915050565b60008060408385031215612499576124986122c4565b5b60006124a785828601612348565b92505060206124b8858286016122ea565b9150509250929050565b60008115159050919050565b6124d7816124c2565b82525050565b60006020820190506124f260008301846124ce565b92915050565b60006020828403121561250e5761250d6122c4565b5b600061251c84828501612348565b91505092915050565b61252e8161231f565b82525050565b60006020820190506125496000830184612525565b92915050565b600080600060608486031215612568576125676122c4565b5b600061257686828701612348565b935050602061258786828701612348565b9250506040612598868287016122ea565b9150509250925092565b6000602082840312156125b8576125b76122c4565b5b60006125c6848285016122ea565b91505092915050565b600060ff82169050919050565b6125e5816125cf565b82525050565b600060208201905061260060008301846125dc565b92915050565b600080600080608085870312156126205761261f6122c4565b5b600061262e878288016122ea565b945050602061263f87828801612348565b9350506040612650878288016122ea565b9250506060612661878288016122ea565b91505092959194509250565b60008060408385031215612684576126836122c4565b5b600061269285828601612348565b92505060206126a385828601612348565b9150509250929050565b7f4e487b7100000000000000000000000000000000000000000000000000000000600052602260045260246000fd5b600060028204905060018216806126f457607f821691505b60208210811415612708576127076126ad565b5b50919050565b7f5642726964676545524332303a205468652061646472657373206973206e6f7460008201527f206d696e7465722e000000000000000000000000000000000000000000000000602082015250565b600061276a6028836123d2565b91506127758261270e565b604082019050919050565b600060208201905081810360008301526127998161275d565b9050919050565b7f4e487b7100000000000000000000000000000000000000000000000000000000600052601160045260246000fd5b60006127da826122c9565b91506127e5836122c9565b9250827fffffffffffffffffffffffffffffffffffffffffffffffffffffffffffffffff0382111561281a576128196127a0565b5b828201905092915050565b7f5642726964676545524332303a20464f5242494444454e000000000000000000600082015250565b600061285b6017836123d2565b915061286682612825565b602082019050919050565b6000602082019050818103600083015261288a8161284e565b9050919050565b6000815190506128a0816122d3565b92915050565b6000602082840312156128bc576128bb6122c4565b5b60006128ca84828501612891565b91505092915050565b6000819050919050565b6000819050919050565b60006129026128fd6128f8846128d3565b6128dd565b6122c9565b9050919050565b612912816128e7565b82525050565b600060608201905061292d600083018661239d565b61293a602083018561239d565b6129476040830184612909565b949350505050565b6000819050919050565b600061297461296f61296a8461294f565b6128dd565b6122c9565b9050919050565b61298481612959565b82525050565b600060608201905061299f600083018661239d565b6129ac602083018561239d565b6129b9604083018461297b565b949350505050565b6000819050919050565b60006129e66129e16129dc846129c1565b6128dd565b6122c9565b9050919050565b6129f6816129cb565b82525050565b6000606082019050612a11600083018661239d565b612a1e602083018561239d565b612a2b60408301846129ed565b949350505050565b7f5642726964676545524332303a204d696e74657220616464726573732063616e60008201527f2774206265207a65726f2e000000000000000000000000000000000000000000602082015250565b6000612a8f602b836123d2565b9150612a9a82612a33565b604082019050919050565b60006020820190508181036000830152612abe81612a82565b9050919050565b7f45524332303a2064656372656173656420616c6c6f77616e63652062656c6f7760008201527f207a65726f000000000000000000000000000000000000000000000000000000602082015250565b6000612b216025836123d2565b9150612b2c82612ac5565b604082019050919050565b60006020820190508181036000830152612b5081612b14565b9050919050565b7f4f776e61626c653a206e6577206f776e657220697320746865207a65726f206160008201527f6464726573730000000000000000000000000000000000000000000000000000602082015250565b6000612bb36026836123d2565b9150612bbe82612b57565b604082019050919050565b60006020820190508181036000830152612be281612ba6565b9050919050565b7f45524332303a20617070726f76652066726f6d20746865207a65726f2061646460008201527f7265737300000000000000000000000000000000000000000000000000000000602082015250565b6000612c456024836123d2565b9150612c5082612be9565b604082019050919050565b60006020820190508181036000830152612c7481612c38565b9050919050565b7f45524332303a20617070726f766520746f20746865207a65726f20616464726560008201527f7373000000000000000000000000000000000000000000000000000000000000602082015250565b6000612cd76022836123d2565b9150612ce282612c7b565b604082019050919050565b60006020820190508181036000830152612d0681612cca565b9050919050565b7f4f776e61626c653a2063616c6c6572206973206e6f7420746865206f776e6572600082015250565b6000612d436020836123d2565b9150612d4e82612d0d565b602082019050919050565b60006020820190508181036000830152612d7281612d36565b9050919050565b7f45524332303a20696e73756666696369656e7420616c6c6f77616e6365000000600082015250565b6000612daf601d836123d2565b9150612dba82612d79565b602082019050919050565b60006020820190508181036000830152612dde81612da2565b9050919050565b7f45524332303a207472616e736665722066726f6d20746865207a65726f20616460008201527f6472657373000000000000000000000000000000000000000000000000000000602082015250565b6000612e416025836123d2565b9150612e4c82612de5565b604082019050919050565b60006020820190508181036000830152612e7081612e34565b9050919050565b7f45524332303a207472616e7366657220746f20746865207a65726f206164647260008201527f6573730000000000000000000000000000000000000000000000000000000000602082015250565b6000612ed36023836123d2565b9150612ede82612e77565b604082019050919050565b60006020820190508181036000830152612f0281612ec6565b9050919050565b7f45524332303a207472616e7366657220616d6f756e742065786365656473206260008201527f616c616e63650000000000000000000000000000000000000000000000000000602082015250565b6000612f656026836123d2565b9150612f7082612f09565b604082019050919050565b60006020820190508181036000830152612f9481612f58565b9050919050565b7f45524332303a206d696e7420746f20746865207a65726f206164647265737300600082015250565b6000612fd1601f836123d2565b9150612fdc82612f9b565b602082019050919050565b6000602082019050818103600083015261300081612fc4565b9050919050565b600060408201905061301c6000830185612525565b613029602083018461239d565b9392505050565b7f45524332303a206275726e2066726f6d20746865207a65726f2061646472657360008201527f7300000000000000000000000000000000000000000000000000000000000000602082015250565b600061308c6021836123d2565b915061309782613030565b604082019050919050565b600060208201905081810360008301526130bb8161307f565b9050919050565b7f45524332303a206275726e20616d6f756e7420657863656564732062616c616e60008201527f6365000000000000000000000000000000000000000000000000000000000000602082015250565b600061311e6022836123d2565b9150613129826130c2565b604082019050919050565b6000602082019050818103600083015261314d81613111565b9050919050565b61315d816124c2565b811461316857600080fd5b50565b60008151905061317a81613154565b92915050565b600060208284031215613196576131956122c4565b5b60006131a48482850161316b565b91505092915050565b7f5361666545524332303a204552433230206f7065726174696f6e20646964206e60008201527f6f74207375636365656400000000000000000000000000000000000000000000602082015250565b6000613209602a836123d2565b9150613214826131ad565b604082019050919050565b60006020820190508181036000830152613238816131fc565b9050919050565b60006060820190506132546000830186612525565b6132616020830185612525565b61326e604083018461239d565b949350505050565b7f416464726573733a20696e73756666696369656e742062616c616e636520666f60008201527f722063616c6c0000000000000000000000000000000000000000000000000000602082015250565b60006132d26026836123d2565b91506132dd82613276565b604082019050919050565b60006020820190508181036000830152613301816132c5565b9050919050565b600081519050919050565b600081905092915050565b600061332982613308565b6133338185613313565b93506133438185602086016123e3565b80840191505092915050565b600061335b828461331e565b915081905092915050565b7f416464726573733a2063616c6c20746f206e6f6e2d636f6e7472616374000000600082015250565b600061339c601d836123d2565b91506133a782613366565b602082019050919050565b600060208201905081810360008301526133cb8161338f565b905091905056fea2646970667358221220e3cf9b107c9f34625e68b00e64c3f84d44f4dab420ffd69bbb31488a3f6b31b564736f6c63430008090033",
  "linkReferences": {},
  "deployedLinkReferences": {}
}