{
  "_format": "hh-sol-artifact-1",
  "contractName": "MinterRole",
  "sourceName": "contracts/utils/MinterRole.sol",
  "abi": [
    {
      "inputs": [],
      "stateMutability": "nonpayable",
      "type": "constructor"
    },
    {
      "anonymous": false,
      "inputs": [
        {
          "indexed": true,
          "internalType": "address",
          "name": "previousOwner",
          "type": "address"
        },
        {
          "indexed": true,
          "internalType": "address",
          "name": "newOwner",
          "type": "address"
        }
      ],
      "name": "OwnershipTransferred",
      "type": "event"
    },
    {
      "inputs": [
        {
          "internalType": "address",
          "name": "_minter",
          "type": "address"
        }
      ],
      "name": "addMinter",
      "outputs": [],
      "stateMutability": "nonpayable",
      "type": "function"
    },
    {
      "inputs": [
        {
          "internalType": "address",
          "name": "",
          "type": "address"
        }
      ],
      "name": "isMinter",
      "outputs": [
        {
          "internalType": "bool",
          "name": "",
          "type": "bool"
        }
      ],
      "stateMutability": "view",
      "type": "function"
    },
    {
      "inputs": [],
      "name": "owner",
      "outputs": [
        {
          "internalType": "address",
          "name": "",
          "type": "address"
        }
      ],
      "stateMutability": "view",
      "type": "function"
    },
    {
      "inputs": [
        {
          "internalType": "address",
          "name": "_minter",
          "type": "address"
        }
      ],
      "name": "removeMinter",
      "outputs": [],
      "stateMutability": "nonpayable",
      "type": "function"
    },
    {
      "inputs": [],
      "name": "renounceOwnership",
      "outputs": [],
      "stateMutability": "nonpayable",
      "type": "function"
    },
    {
      "inputs": [
        {
          "internalType": "address",
          "name": "newOwner",
          "type": "address"
        }
      ],
      "name": "transferOwnership",
      "outputs": [],
      "stateMutability": "nonpayable",
      "type": "function"
    }
  ],
  "bytecode": "0x608060405234801561001057600080fd5b5061002d61002261008960201b60201c565b61009160201b60201c565b60018060003373ffffffffffffffffffffffffffffffffffffffff1673ffffffffffffffffffffffffffffffffffffffff16815260200190815260200160002060006101000a81548160ff021916908315150217905550610155565b600033905090565b60008060009054906101000a900473ffffffffffffffffffffffffffffffffffffffff169050816000806101000a81548173ffffffffffffffffffffffffffffffffffffffff021916908373ffffffffffffffffffffffffffffffffffffffff1602179055508173ffffffffffffffffffffffffffffffffffffffff168173ffffffffffffffffffffffffffffffffffffffff167f8be0079c531659141344cd1fd0a4f28419497f9722a3daafe3b4186f6b6457e060405160405180910390a35050565b610858806101646000396000f3fe608060405234801561001057600080fd5b50600436106100625760003560e01c80633092afd514610067578063715018a6146100835780638da5cb5b1461008d578063983b2d56146100ab578063aa271e1a146100c7578063f2fde38b146100f7575b600080fd5b610081600480360381019061007c9190610562565b610113565b005b61008b610202565b005b610095610216565b6040516100a2919061059e565b60405180910390f35b6100c560048036038101906100c09190610562565b61023f565b005b6100e160048036038101906100dc9190610562565b610311565b6040516100ee91906105d4565b60405180910390f35b610111600480360381019061010c9190610562565b610331565b005b61011b6103b5565b600160008273ffffffffffffffffffffffffffffffffffffffff1673ffffffffffffffffffffffffffffffffffffffff16815260200190815260200160002060009054906101000a900460ff166101a7576040517f08c379a000000000000000000000000000000000000000000000000000000000815260040161019e90610672565b60405180910390fd5b6000600160008373ffffffffffffffffffffffffffffffffffffffff1673ffffffffffffffffffffffffffffffffffffffff16815260200190815260200160002060006101000a81548160ff02191690831515021790555050565b61020a6103b5565b6102146000610433565b565b60008060009054906101000a900473ffffffffffffffffffffffffffffffffffffffff16905090565b6102476103b5565b600073ffffffffffffffffffffffffffffffffffffffff168173ffffffffffffffffffffffffffffffffffffffff1614156102b7576040517f08c379a00000000000000000000000000000000000000000000000000000000081526004016102ae90610704565b60405180910390fd5b60018060008373ffffffffffffffffffffffffffffffffffffffff1673ffffffffffffffffffffffffffffffffffffffff16815260200190815260200160002060006101000a81548160ff02191690831515021790555050565b60016020528060005260406000206000915054906101000a900460ff1681565b6103396103b5565b600073ffffffffffffffffffffffffffffffffffffffff168173ffffffffffffffffffffffffffffffffffffffff1614156103a9576040517f08c379a00000000000000000000000000000000000000000000000000000000081526004016103a090610796565b60405180910390fd5b6103b281610433565b50565b6103bd6104f7565b73ffffffffffffffffffffffffffffffffffffffff166103db610216565b73ffffffffffffffffffffffffffffffffffffffff1614610431576040517f08c379a000000000000000000000000000000000000000000000000000000000815260040161042890610802565b60405180910390fd5b565b60008060009054906101000a900473ffffffffffffffffffffffffffffffffffffffff169050816000806101000a81548173ffffffffffffffffffffffffffffffffffffffff021916908373ffffffffffffffffffffffffffffffffffffffff1602179055508173ffffffffffffffffffffffffffffffffffffffff168173ffffffffffffffffffffffffffffffffffffffff167f8be0079c531659141344cd1fd0a4f28419497f9722a3daafe3b4186f6b6457e060405160405180910390a35050565b600033905090565b600080fd5b600073ffffffffffffffffffffffffffffffffffffffff82169050919050565b600061052f82610504565b9050919050565b61053f81610524565b811461054a57600080fd5b50565b60008135905061055c81610536565b92915050565b600060208284031215610578576105776104ff565b5b60006105868482850161054d565b91505092915050565b61059881610524565b82525050565b60006020820190506105b3600083018461058f565b92915050565b60008115159050919050565b6105ce816105b9565b82525050565b60006020820190506105e960008301846105c5565b92915050565b600082825260208201905092915050565b7f5642726964676545524332303a205468652061646472657373206973206e6f7460008201527f206d696e7465722e000000000000000000000000000000000000000000000000602082015250565b600061065c6028836105ef565b915061066782610600565b604082019050919050565b6000602082019050818103600083015261068b8161064f565b9050919050565b7f5642726964676545524332303a204d696e74657220616464726573732063616e60008201527f2774206265207a65726f2e000000000000000000000000000000000000000000602082015250565b60006106ee602b836105ef565b91506106f982610692565b604082019050919050565b6000602082019050818103600083015261071d816106e1565b9050919050565b7f4f776e61626c653a206e6577206f776e657220697320746865207a65726f206160008201527f6464726573730000000000000000000000000000000000000000000000000000602082015250565b60006107806026836105ef565b915061078b82610724565b604082019050919050565b600060208201905081810360008301526107af81610773565b9050919050565b7f4f776e61626c653a2063616c6c6572206973206e6f7420746865206f776e6572600082015250565b60006107ec6020836105ef565b91506107f7826107b6565b602082019050919050565b6000602082019050818103600083015261081b816107df565b905091905056fea2646970667358221220da327314eb16b34b716f746301dc2c7ae3752ea2ee7fd409168999675a026cca64736f6c63430008090033",
  "linkReferences": {},
  "deployedLinkReferences": {}
}